{
  "_format": "hh-sol-artifact-1",
  "contractName": "RealProtocol",
  "sourceName": "contracts/RealProtocol.sol",
  "abi": [
    {
      "inputs": [
        {
          "internalType": "address",
          "name": "",
          "type": "address"
        }
      ],
      "name": "data",
      "outputs": [
        {
          "internalType": "string",
          "name": "name",
          "type": "string"
        },
        {
          "internalType": "string",
          "name": "id",
          "type": "string"
        },
        {
          "internalType": "string",
          "name": "phone",
          "type": "string"
        },
        {
          "internalType": "string",
          "name": "email",
          "type": "string"
        }
      ],
      "stateMutability": "view",
      "type": "function"
    },
    {
      "inputs": [],
      "name": "getData",
      "outputs": [
        {
          "internalType": "string",
          "name": "",
          "type": "string"
        },
        {
          "internalType": "string",
          "name": "",
          "type": "string"
        },
        {
          "internalType": "string",
          "name": "",
          "type": "string"
        },
        {
          "internalType": "string",
          "name": "",
          "type": "string"
        }
      ],
      "stateMutability": "view",
      "type": "function"
    },
    {
      "inputs": [
        {
          "internalType": "string",
          "name": "_name",
          "type": "string"
        },
        {
          "internalType": "string",
          "name": "_id",
          "type": "string"
        },
        {
          "internalType": "string",
          "name": "_phone",
          "type": "string"
        },
        {
          "internalType": "string",
          "name": "_email",
          "type": "string"
        }
      ],
      "name": "saveData",
      "outputs": [],
      "stateMutability": "nonpayable",
      "type": "function"
    }
  ],
  "bytecode": "0x608060405234801561001057600080fd5b5061090a806100206000396000f3fe608060405234801561001057600080fd5b50600436106100415760003560e01c80630550a609146100465780633bc5de301461005b578063b90d3d0c1461007c575b600080fd5b610059610054366004610717565b61008f565b005b61006361012d565b6040516100739493929190610811565b60405180910390f35b61006361008a366004610869565b610393565b604080516080810182528581526020808201869052818301859052606082018490523360009081528082529290922081518051929391926100d392849201906105db565b5060208281015180516100ec92600185019201906105db565b50604082015180516101089160028401916020909101906105db565b50606082015180516101249160038401916020909101906105db565b50505050505050565b3360009081526020819052604090208054606091829182918291600182019060028301906003840190849061016190610899565b80601f016020809104026020016040519081016040528092919081815260200182805461018d90610899565b80156101da5780601f106101af576101008083540402835291602001916101da565b820191906000526020600020905b8154815290600101906020018083116101bd57829003601f168201915b505050505093508280546101ed90610899565b80601f016020809104026020016040519081016040528092919081815260200182805461021990610899565b80156102665780601f1061023b57610100808354040283529160200191610266565b820191906000526020600020905b81548152906001019060200180831161024957829003601f168201915b5050505050925081805461027990610899565b80601f01602080910402602001604051908101604052809291908181526020018280546102a590610899565b80156102f25780601f106102c7576101008083540402835291602001916102f2565b820191906000526020600020905b8154815290600101906020018083116102d557829003601f168201915b5050505050915080805461030590610899565b80601f016020809104026020016040519081016040528092919081815260200182805461033190610899565b801561037e5780601f106103535761010080835404028352916020019161037e565b820191906000526020600020905b81548152906001019060200180831161036157829003601f168201915b50505050509050935093509350935090919293565b6000602081905290815260409020805481906103ae90610899565b80601f01602080910402602001604051908101604052809291908181526020018280546103da90610899565b80156104275780601f106103fc57610100808354040283529160200191610427565b820191906000526020600020905b81548152906001019060200180831161040a57829003601f168201915b50505050509080600101805461043c90610899565b80601f016020809104026020016040519081016040528092919081815260200182805461046890610899565b80156104b55780601f1061048a576101008083540402835291602001916104b5565b820191906000526020600020905b81548152906001019060200180831161049857829003601f168201915b5050505050908060020180546104ca90610899565b80601f01602080910402602001604051908101604052809291908181526020018280546104f690610899565b80156105435780601f1061051857610100808354040283529160200191610543565b820191906000526020600020905b81548152906001019060200180831161052657829003601f168201915b50505050509080600301805461055890610899565b80601f016020809104026020016040519081016040528092919081815260200182805461058490610899565b80156105d15780601f106105a6576101008083540402835291602001916105d1565b820191906000526020600020905b8154815290600101906020018083116105b457829003601f168201915b5050505050905084565b8280546105e790610899565b90600052602060002090601f016020900481019282610609576000855561064f565b82601f1061062257805160ff191683800117855561064f565b8280016001018555821561064f579182015b8281111561064f578251825591602001919060010190610634565b5061065b92915061065f565b5090565b5b8082111561065b5760008155600101610660565b634e487b7160e01b600052604160045260246000fd5b600082601f83011261069b57600080fd5b813567ffffffffffffffff808211156106b6576106b6610674565b604051601f8301601f19908116603f011681019082821181831017156106de576106de610674565b816040528381528660208588010111156106f757600080fd5b836020870160208301376000602085830101528094505050505092915050565b6000806000806080858703121561072d57600080fd5b843567ffffffffffffffff8082111561074557600080fd5b6107518883890161068a565b9550602087013591508082111561076757600080fd5b6107738883890161068a565b9450604087013591508082111561078957600080fd5b6107958883890161068a565b935060608701359150808211156107ab57600080fd5b506107b88782880161068a565b91505092959194509250565b6000815180845260005b818110156107ea576020818501810151868301820152016107ce565b818111156107fc576000602083870101525b50601f01601f19169290920160200192915050565b60808152600061082460808301876107c4565b828103602084015261083681876107c4565b9050828103604084015261084a81866107c4565b9050828103606084015261085e81856107c4565b979650505050505050565b60006020828403121561087b57600080fd5b81356001600160a01b038116811461089257600080fd5b9392505050565b600181811c908216806108ad57607f821691505b602082108114156108ce57634e487b7160e01b600052602260045260246000fd5b5091905056fea26469706673582212201ba83d01ff60efd3b80018664989a5546c578c18b83a57b30cde6c58a2ad54bf64736f6c63430008090033",
  "linkReferences": {},
  "deployedLinkReferences": {}
}